:100000000C9475000C949D000C949D000C949D0024
:100010000C949D000C949D000C949D000C949D00EC
:100020000C949D000C949D000C94B60A0C949D00B9
:100030000C949D000C94B30B0C949D000C949D00AB
:100040000C9401050C949D000C949D000C949D0053
:100050000C949D000C949D000C949D000C949D00AC
:100060000C944B050C949D009816B316CF16F316FE
:1000700019173F175A176A17781784178E1796178C
:100080002B185D188F189C18CE1800193419000011
:100090000000240027002A0000000000250028009E
:1000A0002B000000000023002600290004040404A3
:1000B0000404040402020202020203030303030312
:1000C00001020408102040800102040810200102EF
:1000D00004081020000000080002010000030407CB
:1000E0000000000000000000AA1C11241FBECFEF7A
:1000F000D8E0DEBFCDBF23E0A2E7B1E001C01D9292
:10010000AA3BB207E1F711E0A0E0B1E0E2E8F2E4D7
:1001100002C005900D92A237B107D9F710E0C5E7EC
:10012000D0E004C02197FE010E940D1EC437D10704
:10013000C9F70E94BB0E0C943F210C940000CF9293
:10014000DF92EF92FF920F931F93CF93DF936C0197
:100150007A018B01C0E0D0E0CE15DF0589F0D8012F
:100160006D918D01D601ED91FC910190F081E02D12
:10017000C6010995892B11F47E0102C02196ECCFAE
:10018000C701DF91CF911F910F91FF90EF90DF900A
:10019000CF900895833081F028F4813099F0823037
:1001A000A1F008958730A9F08830B9F08430D1F4F7
:1001B000809180008F7D03C0809180008F77809335
:1001C0008000089584B58F7702C084B58F7D84BD8B
:1001D00008958091B0008F7703C08091B0008F7D2B
:1001E0008093B00008953FB7F894809154029091A5
:1001F0005502A0915602B091570226B5A89B05C0A2
:100200002F3F19F00196A11DB11D3FBFBA2FA92F95
:10021000982F8827820F911DA11DB11DBC01CD0112
:1002200042E0660F771F881F991F4A95D1F70895FE
:1002300085ED8093BC008091BC0084FDFCCF1092C2
:100240009E02089540912A02262F30E0240F311D8E
:1002500021323105DCF420919E022430C9F4FC01E6
:1002600080E090E0861758F430912A022191DC0159
:10027000A85FBD4FA30FB11D2C930196F3CF8091C2
:100280002A02680F60932A0280E0089581E00895B1
:1002900082E008950895E091C4028091C302E817B6
:1002A00030F4F0E0E85AFD4F808190E008958FEF40
:1002B0009FEF08959091C4028091C302981750F463
:1002C000E92FF0E0E85AFD4F208130E09F5F9093E6
:1002D000C40202C02FEF3FEFC90108958091C3020D
:1002E00090E02091C402821B91090895CF92DF9281
:1002F000EF92FF920F931F93CF93DF937C01262FF2
:10030000972F8A0180919F02882391F0C62FD72FC3
:100310006E01C40ED51ECC15DD0571F06991D701B3
:10032000ED91FC910190F081E02DC7010995F3CF8B
:10033000642F822F0E942201C801DF91CF911F916B
:100340000F91FF90EF90DF90CF900895CF93DF93C0
:100350001F92CDB7DEB7698320919F022223D1F08F
:100360002091C102203240F021E030E0FC013383D3
:10037000228380E090E015C08091C202E82FF0E077
:10038000E056FD4F998190838F5F8093C2028093E6
:10039000C10205C061E0CE0101960E94220181E008
:1003A00090E00F90DF91CF9108956F927F928F929E
:1003B0009F92AF92BF92CF92DF92EF92FF920F93F4
:1003C0001F93CF93DF93EC01EE81AE2FB0E020E8D6
:1003D00033E341EE51E00E94FB204B015C0122EB34
:1003E00037E0FD0104E610E080E9E82EFF24F394F5
:1003F000C901825B97408E179F07DCF4C9018370A7
:100400009927892B99F4C901B8010E94F91D892BFC
:1004100031F4C901B7010E94F91D892B39F480E834
:10042000880E81E5981E81E0A81EB11C2F5F3F4F0A
:10043000DFCF6D80712CEE54F84FCF0164E670E091
:100440000E94F91D7C01CF0160E971E00E94F91D55
:100450006C0101E010E0E370FF27061517052CF58D
:100460000230110581F4309771F4E114F10419F4AC
:10047000C114D10441F480E8880E8BE3981E86E213
:10048000A81EB11C0FC0D801AC5ABE4FAC91B0E051
:1004900020E831E541E050E00E94FB20860E971EE7
:1004A000A81EB91E0F5F1F4FD8CF49812A8130E0A7
:1004B000A0E1BEE00E9430216B017C01242F30E0DE
:1004C000ACE3B0E00E943021DC01CB018C0D9D1D1E
:1004D000AE1DBF1D28816C017D01C20ED11CE11C27
:1004E000F11CAC81B0E0119720E831E541E050E02B
:1004F0000E940621DC01CB018C0D9D1DAE1DBF1D90
:10050000BC01CD01680D791D8A1D9B1DDF91CF9126
:100510001F910F91FF90EF90DF90CF90BF90AF9021
:100520009F908F907F906F9008950E9465200F9309
:100530001F93CF938C0181E080939F0288E6809384
:10054000C0021092C2021092C10260E085EC92E0FB
:100550000E94A601F8018081CAE06C2F0E94ED1D67
:10056000692FF0E18F9F600D112485EC92E00E94CD
:10057000A601F80181816C2F0E94ED1D692FF0E129
:100580008F9F600D112485EC92E00E94A601F80176
:1005900082816C2F0E94ED1D692FF0E18F9F600D0D
:1005A000112485EC92E00E94A601F80183816C2F52
:1005B0000E94ED1D692FF0E18F9F600D112485ECE5
:1005C00092E00E94A601F80184816C2F0E94ED1D2B
:1005D000692FF0E18F9F600D112485EC92E00E945D
:1005E000A601F80185816C2F0E94ED1D692FF0E1B5
:1005F0008F9F600D112485EC92E00E94A601F80106
:1006000086818E516C2F0E94ED1D692FF0E18F9F26
:10061000600D112485EC92E00E94A601CF911F91FC
:100620000F910C94DB0BCF93DF93CDB7DEB72797F9
:100630000FB6F894DEBF0FBECDBF81E080939F025E
:1006400088E68093C0021092C2021092C10260E05C
:1006500085EC92E00E94A6010E94DB0B67E070E04F
:1006600088E690E00E94380C85EC92E00E945A01E6
:10067000982F9695969596959E70292F220F220F6A
:10068000920F8F70890F898385EC92E00E945A0146
:10069000982F92959F708F702AE0929F800D112461
:1006A0008A8385EC92E00E945A01982F9695969540
:1006B00096959670292F220F220F920F8F70890F17
:1006C0008B8385EC92E00E945A01982F92959F703F
:1006D0008F702AE0929F800D11248C8385EC92E02C
:1006E0000E945A01982F92959F708F702AE0929FD6
:1006F000800D11248D8385EC92E00E945A01982F81
:1007000092959F708F702AE0929F800D11248E83A6
:1007100085EC92E00E945A01982F9F70925E82951C
:100720008F702AE0829F900D11249F83CE01019645
:100730000E94D50127960FB6F894DEBF0FBECDBF3D
:10074000DF91CF910895CF93DF9300D000D0CDB744
:10075000DEB7611571058105910579F09B01AC014A
:1007600069833A834B835C830E94B82029813A8154
:100770004B815C810E94DC2003C060E070E0CB0113
:100780000F900F900F900F90DF91CF910895CF931E
:10079000DF93282F30E0F901EC52FF4F8491F901EB
:1007A000E054FF4FD491F901E455FF4FC491CC239D
:1007B00091F081110E94CA00EC2FF0E0EE0FFF1FB4
:1007C000EE55FF4FA591B491EC91ED2381E090E0BF
:1007D00021F480E002C080E090E0DF91CF910895A5
:1007E0001F93CF93DF93282F30E0F901EC52FF4F96
:1007F0008491F901E054FF4FD491F901E455FF4F82
:10080000C491CC23C9F0162F81110E94CA00EC2F8D
:10081000F0E0EE0FFF1FE856FF4FA591B4918FB7A0
:10082000F894111105C09C91ED2FE095E92302C0C9
:10083000EC91ED2BEC938FBFDF91CF911F91089539
:10084000CF93DF9390E0FC01E054FF4F2491FC0133
:10085000E455FF4F8491882361F190E0880F991F40
:10086000FC01E257FF4FC591D491FC01E856FF4FC0
:10087000A591B491611109C09FB7F8948881209522
:1008800082238883EC912E230BC0623061F49FB7E2
:10089000F8943881822F809583238883EC912E2BC6
:1008A0002C939FBF06C08FB7F894E8812E2B288326
:1008B0008FBFDF91CF9108951F93CF93DF93182FB0
:1008C000EB0161E00E942004209711F460E004C075
:1008D000CF3FD10539F461E0812FDF91CF911F9196
:1008E0000C94F003E12FF0E0EC52FF4FE491E33081
:1008F000F9F048F4E130B9F0E230A1F584B5806256
:1009000084BDC8BD34C0E730E9F0E83019F1E43007
:1009100049F580918000806280938000D0938B00A5
:10092000C0938A0024C084B5806884BDC7BD1FC041
:1009300080918000806880938000D0938900C0936C
:10094000880015C08091B00080688093B000C0938B
:10095000B3000DC08091B00080628093B000C0935E
:10096000B40005C0C038D1050CF0B5CFAFCFDF91D2
:10097000CF911F9108958F929F92AF92BF92CF9285
:10098000DF92EF92FF926B017C010E94F3004B011A
:100990005C01C114D104E104F104F1F00E94F30000
:1009A000DC01CB0188199909AA09BB09883E93404B
:1009B000A105B10570F321E0C21AD108E108F108E0
:1009C00088EE880E83E0981EA11CB11CC114D104CE
:1009D000E104F10419F7DDCFFF90EF90DF90CF90A5
:1009E000BF90AF909F908F9008952FB7F89460912B
:1009F00050027091510280915202909153022FBF88
:100A000008951F920F920FB60F9211242F933F93C8
:100A10008F939F93AF93BF93809150029091510217
:100A2000A0915202B091530230914F0223E0230F64
:100A30002D3720F40196A11DB11D05C026E8230F16
:100A40000296A11DB11D20934F02809350029093F6
:100A50005102A0935202B09353028091540290919C
:100A60005502A0915602B09157020196A11DB11DE9
:100A70008093540290935502A0935602B09357026C
:100A8000BF91AF919F918F913F912F910F900FBE8A
:100A90000F901F9018951F920F920FB60F9211246E
:100AA0002F933F934F935F936F937F938F939F9376
:100AB000AF93BF93EF93FF938091B900887F803607
:100AC00009F49CC068F5883209F45BC090F4803169
:100AD00009F454C038F4882309F4F6C0883009F4C6
:100AE0004DC0F6C0883109F44CC0803209F45DC0B5
:100AF000EFC0803409F468C048F4803309F455C06D
:100B0000883309F0E5C080939C02D8C0803509F491
:100B10004FC0883509F45DC0883409F0D9C0D6C00B
:100B2000883909F4C7C0A8F4883709F467C038F4D5
:100B3000883609F463C0803709F460C0C9C08838BA
:100B400009F4B8C0803909F45FC0803809F0C0C02A
:100B50005BC0803B09F486C038F4803A09F466C073
:100B6000883A09F47FC0B4C0803C09F4A7C0883C2F
:100B700009F4A4C0883B09F48AC0AAC08091790214
:100B800010C090919B0280919A02981770F5E091A5
:100B90009B0281E08E0F80939B02F0E0E658FD4FB0
:100BA00080818093BB0085EC86C080939C028EC0C0
:100BB000E0919B0281E08E0F80939B028091BB00AD
:100BC000F0E0E658FD4F808390919B0280919A025D
:100BD0006EC0E0919B0281E08E0F80939B0280911A
:100BE000BB00F0E0E658FD4F808380919D028111AB
:100BF0006DC081E08093780284EA61C083E08093D5
:100C00009E0210924E02CFCF80914E02803208F0A9
:100C100051C0E0914E0281E08E0F80934E02809190
:100C2000BB00F0E0E25DFD4F8083BDCF85EC80939B
:100C3000BC0010929E0280914E02803230F4E0910E
:100C40004E02F0E0E25DFD4F108260914E0270E0D6
:100C5000E0912C02F0912D028EE292E00995109223
:100C60004E0236C084E080939E0210922B021092B6
:100C70002A02E0912802F0912902099580912A0226
:100C8000811105C081E080932A0210920802E09150
:100C90002B0281E08E0F80932B02F0E0E85FFD4F86
:100CA00080818093BB0090912B0280912A0298173B
:100CB00008F479CF85E88093BC000AC085EC809366
:100CC000BC0010929E0204C010929C020E94180167
:100CD000FF91EF91BF91AF919F918F917F916F9114
:100CE0005F914F913F912F910F900FBE0F901F90EA
:100CF000189510929E0281E080939D0210927802D6
:100D000061E082E10E94F00361E083E10E94F00370
:100D1000E9EBF0E080818E7F808380818D7F80830E
:100D200088E48093B80085E48093BC000895CF9256
:100D3000DF92EF92FF920F931F930E94F504C090F1
:100D40000402D0900502E0900602F09007028B01A9
:100D50009C010C191D092E093F0980917601909183
:100D60007701A0917801B0917901083E13402105E7
:100D70003105D0F00196A11DB11D809376019093AD
:100D80007701A0937801B0937901B701A60148518A
:100D90005C4F6F4F7F4F4093040250930502609366
:100DA000060270930702C9CF4091720150917301FE
:100DB000609174017091750184179507A607B707B4
:100DC00008F456C0E0917A01F0917B01309709F464
:100DD0004FC00995611571058105910539F1609341
:100DE0007601709377018093780190937901DC010B
:100DF000CB01845D9E4FAF4FBF4F809372019093A4
:100E00007301A0937401B093750182E090E0909318
:100E10000302809302020E94F5046093040270931F
:100E20000502809306029093070222C0809176010A
:100E300090917701A0917801B0917901845D9E4FE6
:100E4000AF4FBF4F8093720190937301A0937401D1
:100E5000B093750181E090E020910202309103028D
:100E6000232B11F480E090E0909303028093020220
:100E7000609176017091770180917801909179016C
:100E80001F910F91FF90EF90DF90CF9008956F9298
:100E90007F928F929F92AF92BF92CF92DF92EF920A
:100EA000FF920F931F93CF93DF93EA012CE3C22E9F
:100EB000D12CE12CF12CA70196010E940E21688310
:100EC000CA01B901A70196010E940E216983CA01D6
:100ED000B90128E130E040E050E00E940E216901B4
:100EE0007A016A83CA01B9016C5F7F4F8F4F9F4FB0
:100EF00027E030E040E050E00E940E216F5F6B83FE
:100F0000812C912C540140E034E6632E712C00E9D1
:100F100011E0242F30E02E54384FF901E370FF2701
:100F2000309789F4C901B3010E94F91D892B31F46E
:100F3000C901B8010E94F91D892B29F48EE691E0C0
:100F4000A0E0B0E004C08DE691E0A0E0B0E0880E43
:100F5000991EAA1EBB1ED501C401AA27BB27C8160D
:100F6000D906EA06FB0610F04F5FD3CF4E833097C9
:100F700099F4C90164E670E00E94F91D892B39F4E7
:100F8000C90160E971E00E94F91D892B29F48EE600
:100F900091E0A0E0B0E004C08DE691E0A0E0B0E018
:100FA000881A990AAA0ABB0AC818D908EA08FB08CD
:100FB000C90164E670E00E94F91D8C01C90160E975
:100FC00071E00E94F91DA5E5B1E020E0213041F477
:100FD000309751F40115110529F4009729F402C046
:100FE0004C9103C04DE101C04CE150E060E070E085
:100FF000C416D506E606F70640F0C41AD50AE60A76
:10100000F70A2F5F11962C3009F72F5F2D83C394B9
:10101000CC82DF91CF911F910F91FF90EF90DF90E5
:10102000CF90BF90AF909F908F907F906F900895DA
:10103000CF93DF93CDB7DEB727970FB6F894DEBF17
:101040000FBECDBFAE014F5F5F4F0E944707898142
:1010500080688983CE0101960E94970289818F77EB
:101060008983CE0101960E94970227960FB6F894C5
:10107000DEBF0FBECDBFDF91CF910895CF92DF923B
:10108000EF92FF920E9497066B017C018091F7011D
:101090009091F801A091F901B091FA01C816D90612
:1010A000EA06FB0671F04BEF51E0C701B6010E9462
:1010B0004707C092F701D092F801E092F901F0924F
:1010C000FA018091010290E08E54984FFF90EF90CA
:1010D000DF90CF900895CF92DF92EF92FF920F931F
:1010E0001F93CF93DF93EC0189810E94C703892B63
:1010F00009F052C00E94F5042B8121110AC06E83B1
:101100007F838887998781E08B831D821882188A64
:1011100048C00E811F8128853985601771078207B5
:10112000930740F46E837F83888799876A877B87DC
:101130008C879D8728812223B1F00A851B852C8509
:101140003D856B017C01C01AD10AE20AF30A0E85C3
:101150001F85012E000C220B330BC016D106E206B0
:10116000F30608F018820E811F8128853985DC017D
:10117000CB01801B910BA20BB30B0A8110E020E086
:1011800030E080179107A207B30758F08D818111D5
:1011900008C081E08C8305C01C828B81813009F4FA
:1011A0001B82DF91CF911F910F91FF90EF90DF9005
:1011B000CF9008950C94CE200C94C6202F923F928D
:1011C0004F925F926F927F928F929F92AF92BF9257
:1011D000CF92DF92EF92FF920F931F93CF93DF9303
:1011E000CDB7DEB727970FB6F894DEBF0FBECDBFE1
:1011F0002B013C01109292011092930110929401E4
:1012000010929501C12CD12C212C332433948601CA
:101210000B5F1E4FF801E080F12CFEE4EF1AF8EFAF
:10122000FF0A0E943E08E816F90639F519821A826B
:101230003B82F80182818D8381818E830E943E08EA
:10124000825B8F83CE0101960E94D5014B015C0128
:10125000F80184818D8383818E83CE0101960E9463
:10126000D501481459046A047B0438F04616570621
:101270006806790610F422242394F5E0CF0ED11CE1
:1012800080E5C816D10419F6E1E02E120DC080E108
:101290009EE0A0E0B0E08093920190939301A09330
:1012A0009401B093950108C010929201109293019D
:1012B000109294011092950127960FB6F894DEBF14
:1012C0000FBECDBFDF91CF911F910F91FF90EF9097
:1012D000DF90CF90BF90AF909F908F907F906F9056
:1012E0005F904F903F902F900895CF92DF92EF92B2
:1012F000FF920F931F93909168039093F201909146
:1013000067039093F101909166039093F00190919F
:101310006A039093F40190916B039093F50190917F
:101320006C039093F601633099F038F4613069F002
:101330006230B1F48093F10113C0653079F058F058
:10134000663071F48093F6010BC08093F20108C0FF
:101350008093F00105C08093F40102C08093F501F1
:1013600080EF91E00E94D5010091960110919701C4
:10137000012E000C220B330BC0909201D0909301F0
:10138000E0909401F09095010C0D1D1D2E1D3F1D48
:10139000601B710B820B930B0E94180883E193E092
:1013A00090937B0180937A018091760190917701EF
:1013B000A0917801B09179018093720190937301AB
:1013C000A0937401B09375011F910F91FF90EF905E
:1013D000DF90CF900C94970680E090E00E94DC08AC
:1013E00090E0489740E15EE0849F9001859F300D3A
:1013F000949F300D11243093970120939601089506
:10140000CF92DF92EF92FF920F931F93AC0160E0B7
:1014100070E080918001909181019A01AB01281BBD
:10142000390B41095109A0918201B09183010E94B9
:10143000FB206B017C018FE0F594E794D794C7946F
:101440008A95D1F780917E0190917F01092E000C41
:10145000AA0BBB0BBC01CD012BE0660F771F881FC9
:10146000991F2A95D1F720917C0130917D01890146
:10147000330F220B330BA90198012C0D3D1D4E1D7E
:101480005F1D0E94DC20D701C601820F931FA41F9D
:10149000B51F8093840190938501A0938601B0933A
:1014A00087010896A11DB11D34E0B595A7959795C4
:1014B00087953A95D1F71F910F91FF90EF90DF90AC
:1014C000CF9008951F93CF93DF9391E090939F0265
:1014D00097E79093C0021092C2021092C102682F47
:1014E00085EC92E00E94A6010E94DB0B62E070E0B6
:1014F00087E790E00E94380C2091C30230E0809191
:10150000C402281B310922303105ECF385EC92E04E
:101510000E945A01182F85EC92E00E945A01D12FA7
:1015200020E0C22F9E01282BC901DF91CF911F918E
:10153000089581E080939F0287E78093C002109214
:10154000C2021092C10284EF90E00E94D60B8EE29C
:1015500090E00E94D60B0E94DB0B65E070E080E01B
:1015600090E00E94BB0486EF0C94620A1F920F92D7
:101570000FB60F9211242F933F934F935F936F9366
:101580007F938F939F93AF93BF93EF93FF9380913C
:101590008600909187009093EF018093EE018091F7
:1015A000810086FF08C0809181008F7B809381003D
:1015B0001092ED0108C080918100806480938100C9
:1015C00081E08093ED012091EE013091EF01409197
:1015D000EB015091EC01C901841B950B9093EA013A
:1015E0008093E9018F36910508F475C06091ED0193
:1015F000613009F070C06091E7017091E801461B0D
:10160000570B5093E6014093E5016091E4018A3A5B
:10161000910598F5423E510580F14431514050F01A
:10162000662321F01092E4011092E3018FEF809382
:10163000E20151C06623D1F04091E301E42FF0E0D4
:10164000BF01609570956370772781E090E001C0DD
:10165000880F6A95EAF78093E101F595E795F5958E
:10166000E795E852FE4F9081892B27C08091E201D7
:101670008F3F69F1880F816028C087539140CB97D5
:1016800050F56623F9F04091E301E42FF0E0BF014B
:10169000609570956370772781E090E001C0880FB6
:1016A0006A95EAF78093E101F595E795F595E79559
:1016B000E852FE4F80959081892380834F5F40934D
:1016C000E30105C08091E201880F8093E20130932D
:1016D000E8012093E7018091E4018823A9F080913B
:1016E000E3018432D9F489E0E8EDF1E0A8E8B1E063
:1016F00001900D928A95E1F781E08093910110921B
:10170000E4011092E3010AC08091E2018A3031F4D1
:101710008FEF8093E20181E08093E4018091EE01FC
:101720009091EF019093EC018093EB018091E9019E
:101730009091EA019093D7018093D6018091ED01B9
:101740008093D501FF91EF91BF91AF919F918F91C0
:101750007F916F915F914F913F912F910F900FBEAD
:101760000F901F9018951F920F920FB60F92112491
:101770000F900FBE0F901F90189561E0809180032D
:101780000E94F00361E0809181030E94F00361E018
:10179000809182030E94F00361E0809183030E94A4
:1017A000F00361E0809184030C94F003682F85ECD2
:1017B00092E00C94A6012091C1029091C0022132C6
:1017C00008F04AC080919E028111FCCF32E0309334
:1017D0009E0231E030939D023FEF30939C021092C5
:1017E0009B0220939A02A0EAB2E04AE752E0FA0193
:1017F0003E2F341B321718F43D913193F9CF1092DC
:10180000790220917902990F922B9093790290910D
:101810007802913061F4109278029091790290935D
:10182000BB009091BC0093FDF8CF95EC01C095EE04
:101830009093BC0090919E029230E1F390919C02B3
:101840009F3F79F080919C02803241F080919C0210
:10185000803331F084E005C081E003C082E001C044
:1018600083E01092C2021092C10210929F0208956A
:1018700090919E029111FCCF613208F060E291E0FC
:1018800090939E0290939D022FEF20939C021092C2
:101890009B02260F20939A029093790290917902ED
:1018A000880F892B8093790280917802813061F4CE
:1018B00010927802809179028093BB008091BC00E5
:1018C00083FDF8CF85EC01C085EE8093BC0080914C
:1018D0009E028130E1F380919B02861710F46091A3
:1018E0009B02AAE7B2E028E532E0F9018E2F821BC5
:1018F000861718F48D918193F9CF1092C4026093EA
:10190000C302862F08950F931F9380917603813031
:1019100009F059C00E94F5040091960310919703B5
:101920002091980330919903AB01BC01401B510BEE
:10193000620B730B80918D0390E0A0E0B0E048173C
:1019400059076A077B0778F40E94F5040091960313
:1019500010919703209198033091990360177107B4
:101960008207930780F520918D03809196039091D3
:101970009703A0919803B0919903820F911DA11D27
:10198000B11D8093960390939703A0939803B0930F
:10199000990390918C0380917503891710F48F5FE0
:1019A00003C0981718F481508093750360917503F4
:1019B000961302C01092760370E0809185031F9108
:1019C0000F910C945C041F910F910895EF92FF9278
:1019D0000F931F93CF93DF93E82EF62EC7E0D0E04E
:1019E000042F10E098010C2E02C0359527950A941B
:1019F000E2F7B901617077278E2D0E94F00361E054
:101A00008F2D0E94F00360E08F2D0E94F00321973C
:101A100048F7DF91CF911F910F91FF90EF900895BC
:101A2000AF92BF92DF92EF92FF920F931F93CF93EB
:101A3000DF938295807FD82ED62A4295407FF42E60
:101A4000F22A0295007FE02A8DE7A82E83E0B82EC7
:101A500060E0F50180810E94F0030EE713E0CFE71C
:101A6000D3E04D2DF801608188810E94E60C4F2D56
:101A7000F801608188810E94E60C4E2DF80160819A
:101A800088810E94E60C61E0F5018081DF91CF91B1
:101A90001F910F91FF90EF90DF90BF90AF900C944B
:101AA000F003AF92BF92DF92EF92FF920F931F93DA
:101AB000CF93DF938295807FD82ED62A4295407FA0
:101AC000F42EF22A0295007FE02A8AE7A82E83E00E
:101AD000B82E60E0F50180810E94F0030BE713E06F
:101AE000CCE7D3E04D2DF801608188810E94E60C9F
:101AF0004F2DF801608188810E94E60C4E2DF8017F
:101B0000608188810E94E60C61E0F5018081DF91AF
:101B1000CF911F910F91FF90EF90DF90BF90AF900A
:101B20000C94F003CF93DF93EC018C818130B9F4F6
:101B30008881811114C00E94F5046A877B878C8795
:101B40009D878889811103C088EE93E002C08AEFE7
:101B500090E09F878E8781E0888B888301C080E03A
:101B6000DF91CF9108950F931F93CF93DF931F922F
:101B7000CDB7DEB781E08093870330916C033E518F
:101B800080916A032AE0622F0E94ED1D482F429542
:101B9000407F492B80916B030E94ED1D8295807FD1
:101BA000182F192B832F0E94ED1D8295807F082FFF
:101BB000092B80918803882399F0909189039111D2
:101BC0000FC090916F039A3058F4853031F0863011
:101BD00031F0843029F44BEB03C01BEB01C00BEB5D
:101BE00060E080917A0349830E94F003498160910B
:101BF0007B0380917C030E94E60C412F60917B0364
:101C000080917C030E94E60C402F60917B038091C1
:101C10007C030E94E60C61E080917A030F90DF91D3
:101C2000CF911F910F910C94F0030F931F93CF93BB
:101C3000DF931F92CDB7DEB71092870380916803C0
:101C40002AE0622F0E94ED1D482F4295407F492BCC
:101C5000809167030E94ED1D8295807F182F192BBC
:101C6000809166030E94ED1D8295807F082F092BCD
:101C700080918803882399F09091890391110FC076
:101C800090916F039A3058F4823031F0833031F004
:101C9000813029F44BEB03C01BEB01C00BEB60E080
:101CA00080917A0349830E94F003498160917B030C
:101CB00080917C030E94E60C412F60917B03809110
:101CC0007C030E94E60C402F60917B0380917C0393
:101CD0000E94E60C61E080917A030F90DF91CF9132
:101CE0001F910F910C94F003EF920F93613019F450
:101CF00094E19093890380938803843018F40E94C0
:101D0000150E02C00E94B30D8BE0E82E0BE02BE015
:101D10004BE06BE08BE00E94100D61E0809182034C
:101D20000E94F00361E0809183030E94F00361E070
:101D3000809184030F91EF900C94F003813041F077
:101D400028F0823061F0833061F0089561E001C0D5
:101D500060E0809183030E94F00361E008C061E0CD
:101D600001C060E0809183030E94F00360E08091F5
:101D700084030C94F003CF93DF93CDB7DEB7639762
:101D80000FB6F894DEBF0FBECDBF789484B58260E5
:101D900084BD84B5816084BD85B5826085BD85B50F
:101DA000816085BD80916E00816080936E0010928D
:101DB0008100809181008260809381008091810008
:101DC0008160809381008091800081608093800099
:101DD0008091B10084608093B1008091B0008160F7
:101DE0008093B00080917A00846080937A00809123
:101DF0007A00826080937A0080917A00816080937B
:101E00007A0080917A00806880937A001092C100F5
:101E100060E088E00E94200460E0809180030E94DE
:101E2000F00360E0809181030E94F00360E0809104
:101E300082030E94F00360E0809183030E94F0031C
:101E400060E0809184030E94F0031092C40210921B
:101E5000C3021092C2021092C1020E947906F89445
:101E60001092800083E880938100809181008064DB
:101E70008093810081E280936F00789403E113E006
:101E800010937B0100937A01809176019091770104
:101E9000A0917801B09179018093720190937301C0
:101EA000A0937401B09375010E9497068CE00E9484
:101EB000C703892B09F069C068EE73E080E090E009
:101EC0000E94BB048CE00E94C703892B09F05DC00F
:101ED00060EE7EEC84E497E50E94180810937B0185
:101EE00000937A018091760190917701A091780119
:101EF000B09179018093720190937301A093740162
:101F0000B09375010E94970663E081E090E00E9423
:101F1000DA0862E082E090E00E94DA0862E083E0A2
:101F200090E00E94DA0864E185E090E00E94DA081F
:101F300066E084E090E00E94DA086AEF86E090E0D4
:101F40000E94DA0862E387E090E00E94DA0867E026
:101F500088E090E00E94DA086EE189E090E00E945B
:101F6000DA0860E08AE090E00E94DA086EE18BE037
:101F700090E00E94DA0864E18CE090E00E94DA08C8
:101F800069E180E090E00E94DA0881E090E00E9440
:101F9000DC08682F70E08CE390E00E94F91D7093DC
:101FA000C0016093BF0182E090E00E94DC08809352
:101FB000BE0183E090E00E94DC088093CA0185E0C6
:101FC00090E00E94DC088093990184E090E00E94F8
:101FD000DC088093980186E090E00E94DC08809302
:101FE0006D0387E090E00E94DC0880936E038CE034
:101FF00090E00E94DC088093BD010E94EC09809172
:102000006D038093790360E0809186030E94F00362
:10201000BBE0EB2E0BE02BE04BE06BE08BE00E9493
:10202000510D2BE04BE06BE08BE00E94100D61E066
:10203000809186030E94F0038FEF80938C0387E0EA
:1020400080938D030E94F504609396037093970329
:10205000809398039093990381E080937603809115
:102060007603882319F00E94830CF9CF10928C0319
:1020700087E080938D030E94F5046093960370932C
:102080009703809398039093990381E0809376035C
:102090000E94830CB12CA7E0AA2E11E0EB2C0B2D93
:1020A0002B2D4B2D6B2D8B2D0E94510D2B2D4B2D40
:1020B0006B2D8B2D0E94100D0E94F5046B017C018D
:1020C0000E94F504DC01CB018C199D09AE09BF0902
:1020D000853F9140A105B10518F40E94830CF0CF13
:1020E0000E94F5046C157D058E059F05B0F3809167
:1020F0007503811112C08091790380938C03A092A3
:102100008D030E94F5046093960370939703809368
:1021100098039093990310937603B3943AE0B31223
:10212000BDCF0E9497060E94DE080E94970640904D
:10213000960150909701052C000C66087708809056
:10214000920190909301A0909401B0909501930119
:102150008201080D191D2A1D3B1D600F711F821F72
:10216000931F46E653E00E944707809167038093E0
:10217000C601809168038093C50180916A038093B2
:10218000C40180916B038093C30180916C038093A1
:10219000C2018AEA0E94620A9B8B8A8B9093A301F8
:1021A0008093A2018CEA0E94620A1C019093A5010F
:1021B0008093A4018EEA0E94620A7C019093A1019F
:1021C0008093A00180EB0E94620A9A87898790938E
:1021D0009D0180939C0182EB0E94620A909383018F
:1021E0008093820184EB0E94620A90938101809324
:1021F000800186EB0E94620A6C0190939F0180939C
:102200009E0188EB0E94620A8C019093A701809343
:10221000A6018AEB0E94620A90939B0180939A0127
:102220008CEB0E94620A90937F0180937E018EEB7B
:102230000E94620A90937D0180937C010E94990A1A
:102240000E94000A90935503809354038091D1011A
:102250009091D201A091D301B091D401880D991D24
:10226000AA1DBB1D9C01AD01240D351D461D571D2A
:1022700029833A834B835C83AA24A394A0929F0270
:10228000F7E7BF2EB092C0021092C2021092C102B4
:1022900084EF90E00E94D60B84E390E00E94D60B7E
:1022A0000E94DB0B65E070E080E090E00E94BB04E0
:1022B000A0929F02B092C0021092C2021092C1027C
:1022C00086EF90E00E94D60B0E94DB0B63E070E08B
:1022D00087E790E00E94380C8091C30290E0209143
:1022E000C402821B910983309105ECF385EC92E0E6
:1022F0000E945A01A82E85EC92E00E945A01B82E45
:1023000085EC92E00E945A018091840190918501B0
:10231000A0918601B09187019C01AD01205A3F40F8
:10232000410951092D833E834F835887CA01B90162
:102330000E94DD1D6D877E878F87988BD7010E9455
:1023400006212B013C016DE07594679457944794E6
:102350006A95D1F72D853E854F8558897CE0559546
:102360004795379527957A95D1F7D6010E94062192
:10237000BB2797FDB095AB2F840D951DA61DB71DEE
:102380000296A11DB11DF2E0B595A7959795879589
:10239000FA95D1F79C01AD0130584F4F5F4FA98599
:1023A000BA850E94FB202B013C01AFE07694679434
:1023B00057944794AA95D1F7CB2CD12CE12CF12C32
:1023C000FE2CED2CDC2CCC24EA28CD2CDE2CEF2CA2
:1023D000FF244A895B894A01550FAA08BB0892E08D
:1023E000880C991CAA1CBB1C9A95D1F7D8012D8585
:1023F0003E854F8558890E9406219B01AC0167E10B
:1024000055954795379527956A95D1F729873A8746
:102410004B875C87D1012D813E814F8158850E9479
:102420000621DC01CB017BE0B595A79597958795B3
:102430007A95D1F729853A854B855C85820F931F64
:10244000A41FB51F880E991EAA1EBB1E32E0830E64
:10245000911CA11CB11CE2E0B594A79497948794B9
:10246000EA95D1F7A7019601281939094A095B09AC
:10247000A0E5B3EC0E94FB2097FD0BC0660F771F11
:10248000881F991FA30192010E940E2169017A0100
:102490000AC0A30192010E940E2169017A01CC0CAD
:1024A000DD1CEE1CFF1C9927F7FC9A958F2D7E2DC5
:1024B0006D2D9B01AC010E94DD1D9B01AC01AEEDB9
:1024C000BBE00E94FB204C01BB2497FCB094AB2CDA
:1024D000A3E4B3EEA70196010E940921BB2797FD53
:1024E000B095AB2F880D991DAA1DBB1D8153914F2F
:1024F000AF4FBF4F34E0B595A795979587953A951F
:10250000D1F7BC01CD016C0D7D1D8E1D9F1D2AE0F4
:1025100030E040E050E00E94DC20C90130935703D6
:102520002093560360916503611149C0609158037F
:1025300070915903261737078CF430935903209371
:10254000580329813A814B815C8120935D0330934C
:102550005E0340935F035093600317C060915A037A
:1025600070915B036217730784F430935B032093CD
:102570005A0329813A814B815C8120936103309316
:102580006203409363035093640320915803309196
:1025900059038217930721F421E020935C0302C0C2
:1025A00010925C0320915A0330915B0382179307CA
:1025B00031F580915C038E5F80935C0320C0309383
:1025C00059032093580330935B0320935A03898166
:1025D0009A81AB81BC8180935D0390935E03A0934D
:1025E0005F03B09360038093610390936203A093B1
:1025F0006303B093640310925C03109265030E941E
:10260000BD0BBAE04B2E512CFAE06F2EA9E17A2EC9
:1026100083EF92E00E946B0882EE92E00E946B08CA
:1026200081ED92E00E946B080E9497060091D10113
:102630001091D2012091D3013091D401601771071C
:102640008207930709F406C10E94F5046093CD0147
:102650007093CE018093CF019093D0011092CC0162
:102660008091CB018F5F8093CB0110926F030E940A
:1026700097066093D1017093D2018093D301909318
:10268000D40120919601309197018901330F220BDB
:10269000330BC0909201D0909301E0909401F090A0
:1026A00095010C0D1D1D2E1D3F1D600F711F821FFA
:1026B000931F46E653E00E9447079091CB0180911B
:1026C000CA0198130EC01092CB01809100018F5F58
:1026D000809300019091C901981718F491E09093AC
:1026E00000018091C801882319F181508093C801AD
:1026F00081111EC0A1E0A093700360E08091860369
:102700000E94F00360928C0370928D030E94F50486
:102710006093960370939703809398039093990323
:10272000B1E0B09376030E94BD0B83E08093C701B4
:102730008091660366E00E94ED1D913041F40E9495
:10274000990A0E94000A9093550380935403809144
:1027500067039091C601891709F47CC08093C60174
:102760009091C801911153C02091680390E0ECE36F
:102770002E9F800D911D11244E9711E0843A9140B7
:1027800008F010E0009170030130E9F411111BC052
:102790001092700361E0809186030E94F0038091A3
:1027A000790380938C0370928D030E94F5046093EB
:1027B00096037093970380939803909399030093E3
:1027C00076031092C70180917003811120C01123FC
:1027D000F1F021E02093700360E0809186030E9475
:1027E000F00360928C0370928D030E94F504609355
:1027F000960370939703809398039093990331E025
:10280000309376030E94BD0B83E08093C7018091D3
:1028100068039091C5018917E9F08093C5010E9472
:1028200097060E94DE0880916A039091C40189177F
:1028300089F08093C40180916B039091C301891743
:1028400049F08093C30180916C039091C201891378
:102850008093C2010E94F5040091CD011091CE0138
:102860002091CF013091D001601771078207930743
:1028700040F46093CD017093CE018093CF0190938B
:10288000D0010091CD011091CE012091CF01309166
:10289000D001AB01BC01401B510B620B730BE091EB
:1028A0006F032E2F30E02F5F3F4FF2E3F29FC00106
:1028B000F39F900D1124092E000CAA0BBB0B481797
:1028C00059076A077B0744F0483E5340610571058C
:1028D0001CF4EF5FE0936F038091C701811107C083
:1028E00080917703882319F082E08093C70180915B
:1028F000C7018336F0F41091E6021130D1F48091D3
:10290000E202811116C00E94F504C090E802D09046
:10291000E902E090EA02F090EB02DC01CB018C19B5
:102920009D09AE09BF09883B9B40A105B10508F090
:1029300055C78091C701823009F42FC118F488234C
:1029400041F0E4C4833009F426C3833609F42DC36F
:10295000DDC42091BF013091C0018091660390E0F9
:10296000B9010E94F91D4091BE01241B3109821753
:1029700093071CF00E94B30D02C00E94150E8091B7
:102980000001813009F04CC020915603309157036B
:102990002031F7E23F073CF0C90160E177E20E9495
:1029A000F91DE62F01C0EBE0C90160E177E20E946A
:1029B000F91D68EE73E00E94F91D262F64E670E0B1
:1029C0000E94F91DE295E07F0E2F022BF62EF29465
:1029D000E0EFFE22B2010E94F91DF62A182F12958F
:1029E000107F80915C030E949E0E60E080918203C4
:1029F0000E94F00360E080917D030E94F003402F6D
:102A000060917E0380917F030E94E60C4F2D6091C0
:102A10007E0380917F030E94E60C412F496069C0CC
:102A2000F82EF69480FD71C00F2D10E028E2209F53
:102A3000F001219FF00D1124EC5FFC4F20E030E00D
:102A400040E251E461817281838194810E94F81F88
:102A50000E940B1F9B0177FF06C022273327261BEE
:102A6000370BF8E001C0F7E0243631053CF0C9012E
:102A700064E670E00E94F91DE62F01C0EBE0C90199
:102A800064E670E00E94F91DF29460EFF622E29590
:102A9000E07FB2010E94F91DDE2ED62AE82EE294D4
:102AA00070EFE722EF2A48E2409F9001419F300DEE
:102AB0001124F901EC5FFC4F84890E949E0E60E0B6
:102AC000809182030E94F00360E080917D030E9468
:102AD000F0034F2D4B6060917E0380917F030E9435
:102AE000E60C4D2D60917E0380917F030E94E60CE1
:102AF0004E2D60917E0380917F030E94E60C61E081
:102B000080917D030E94F00301C4EF2DF0E058E2B4
:102B10005E9FD0015F9FB00D1124AC5FBC4F5196FA
:102B20002C9130E02A3031052CF0C901B2010E940D
:102B3000F91D01C06BE00F2D0295007F162F129535
:102B4000107FC901B2010E94F91D182B88E28E9FE7
:102B500090018F9F300D1124F901EC5FFC4F8589A6
:102B60000E949E0E60E0809182030E94F00360E06C
:102B700080917D030E94F003402F4B6060917E03A3
:102B800080917F030E94E60C412F60917E0380912B
:102B90007F030E94E60C42E0ACCF0E94F504009156
:102BA0009A0310919B0320919C0330919D03DC01BB
:102BB000CB01801B910BA20BB30BC297A105B105F2
:102BC00008F016C60E94F50400919A0310919B0329
:102BD00020919C0330919D03601771078207930732
:102BE00008F406C60AC0833009F47CC6813029F493
:102BF000809193038F5F80939303209190032430FF
:102C000040F491E09093770390938E0310928F039A
:102C100082C08091910390E0821B910983309105DD
:102C200004F580917703823009F075C080917903B3
:102C300080938C0388E080938D030E94F504609359
:102C40009603709397038093980390939903A1E060
:102C5000A093760383E0809377038CE080939303C3
:102C60005AC00597C4F410918F031130A1F410924B
:102C70008C0383E080938D030E94F5046093960398
:102C8000709397038093980390939903109376031E
:102C900010928F033DC08091750381111BC010916C
:102CA0008E031130B9F48091790380938C0383E013
:102CB00080938D030E94F5046093960370939703AD
:102CC00080939803909399031093760310928E0348
:102CD00010938F0390917503809179039817C0F03A
:102CE00080918E03811114C010928C0383E0809335
:102CF0008D030E94F504609396037093970380936D
:102D0000980390939903B1E0B0937603B0938E0348
:102D100082E080937703E09193038E2F90E08C30D4
:102D2000910508F008C1FC01EC5CFF4F0C940D1EEE
:102D30008091AE038093A2038091AF038093A3039D
:102D40008091B0038093A4038091B1038093A50385
:102D50008091B2038093A6038091B3038093A7036D
:102D60008091B40317C08091AE038093A203809139
:102D7000AF038093A3038091B0038093A403809159
:102D8000B1038093A5038091B2038093A6038BE0E7
:102D90008093A7038093A8038091B50317C0809107
:102DA000AE038093A2038091AF038093A30380912D
:102DB000B0038093A4038091B1038093A5038BE0BB
:102DC0008093A6038093A7038093A8038093A9030D
:102DD0008091B6038093AA038091B7038093AB03DD
:102DE0008091B80363C08091AE038093A203809169
:102DF000AF038093A3038091B0038093A4038BE07F
:102E00008093A5038093A6038093A7038093A803D0
:102E10008093A9038093AA038091B7038093AB03A7
:102E20008091B8038093AC0389E08093AD0360E0A8
:102E300021C08091AE038093A2038091AF03809361
:102E4000A3038BE08093A4038093A5038093A60340
:102E50008093A7038093A8038093A9038093AA0378
:102E60008093AB038091B8038093AC0389E0809397
:102E7000AD0361E0809182030E94F0035CC0809109
:102E8000AE038093A2038BE08093A3038093A403FB
:102E90008093A5038093A6038093A7038093A80340
:102EA0008093A9038093AA038093AB038093AC0320
:102EB00089E03FC08BE08093A2038093A3038093BB
:102EC000A4038093A5038093A6038093A703809314
:102ED000A8030BC08BE08093A2038093A30380938D
:102EE000A4038093A5038093A6038093A90309C03C
:102EF0008BE08093A2038093A3038093A403809329
:102F0000A5038093AA0307C08BE08093A20380935C
:102F1000A3038093A4038093AB0305C08BE080934D
:102F2000A2038093A3038093AC0303C08BE0809340
:102F3000A2038093AD03E090A7030091A603209124
:102F4000A5034091A4036091A3038091A2030E9472
:102F5000510DE090AD030091AC032091AB03409183
:102F6000AA036091A9038091A8030E94100D0E94FA
:102F7000830C2091900330E08091910390E00196C2
:102F80002817390719F4E1E0E0937803809177037B
:102F90008111BCC1CDC41091F702113009F0B6C146
:102FA0008091F3028111B2C1A6C48091F7028130F1
:102FB000D1F48091F302811116C00E94F5040091B2
:102FC000F9021091FA022091FB023091FC02DC011F
:102FD000CB01801B910BA20BB30B803D9740A10549
:102FE000B10508F0A8C41091F702113021F58091C5
:102FF000F302811120C00E94F5046093FD027093DA
:10300000FE028093FF029093000328EB3BE0309395
:103010000203209301031093F3028091C7018336CA
:1030200051F48091C101873020F48F5F8093C101FA
:1030300002C01093C101E091C1018E2F90E0FC010C
:103040003197E730F10508F061C1E05CFF4F82EE97
:1030500092E00C940D1E0E94920D882391F08091B5
:103060006803873110F48F5F01C080E0282F30E0C3
:103070003093BC012093BB0161E00E94750961E0BF
:1030800001C060E081ED92E0698B0E94920D698938
:10309000882389F080916803882311F0815001C052
:1030A00087E1282F30E03093BC012093BB0161E021
:1030B0000E94750961E081E0D4C00E94920D8823CE
:1030C00091F0809167038B3310F48F5F01C080E033
:1030D000282F30E03093BC012093BB0162E00E94B6
:1030E000750961E001C060E081ED92E0698B0E94AA
:1030F000920D6989882389F080916703882311F0F4
:10310000815001C08BE3282F30E03093BC01209325
:10311000BB0162E00E94750961E082E0A2C00E94EA
:10312000920D811111C481ED92E00E94920D8111E6
:103130000BC460E083E095C00E94920D882391F05B
:1031400080916C03833610F48F5F01C080E0282FDC
:1031500030E03093BC012093BB0166E00E9475090A
:1031600061E001C060E081ED92E0698B0E94920D08
:103170006989882389F080916C03882311F081503C
:1031800001C083E6282F30E03093BC012093BB01BF
:1031900066E00E94750961E086E063C00E94920DBE
:1031A000882391F080916B038C3010F48F5F01C005
:1031B00081E0282F30E03093BC012093BB0165E013
:1031C0000E94750961E001C060E081ED92E0698BC9
:1031D0000E94920D6989882389F080916B03813068
:1031E00011F0815001C08CE0282F30E03093BC01F9
:1031F0002093BB0165E00E94750961E085E031C064
:103200000E94920D882391F080916A038F3110F40F
:103210008F5F01C081E0282F30E03093BC01209304
:10322000BB0164E00E94750961E001C060E081EDCE
:1032300092E0698B0E94920D6989882389F08091C0
:103240006A03813011F0815001C08FE1282F30E0F6
:103250003093BC012093BB0164E00E94750961E0DA
:1032600084E00E94740E52C00E94920D8823D9F00F
:1032700080E090E00E94DC08082F10E00432110585
:103280001CF40751110902C004EF1FEFB801685E7A
:103290007F4F80E090E00E94DA080E94EC0964E031
:1032A000802F0E94750981ED92E00E94920D882383
:1032B000C1F080E090E00E94DC08082F10E00C30A4
:1032C000110511F009511109B801685E7F4F80E0C6
:1032D00090E00E94DA080E94EC0964E0802F0E94CE
:1032E00075098091C101662D0E94ED1D4BE0E42E11
:1032F0000BE02BE04BE0692F0E94510D58E0E52ECA
:1033000025E040E06BE08BE00E94100D90916F0390
:103310008091B903981751F19093B9038091890373
:10332000882319F081508093890380917003811163
:103330001DC080917703811119C08091870381118D
:103340000BC09A3010F460E008C061E08091800307
:103350000E94F00361E006C061E0809180030E945A
:10336000F00360E0809181030E94F0030E94830CCF
:1033700080919101882309F427C289E0E8E8F1E00F
:10338000A2EBB1E001900D928A95E1F790E08AE01E
:10339000E92FF0E0EE54FE4F2081820F9F5F9830BE
:1033A000B9F79093B0011092AF018F7090E0209127
:1033B000BA0130E08217930709F093C06091B5011C
:1033C0008091B80168138DC02091B6018091B90138
:1033D000281387C06A3008F084C02A3008F081C002
:1033E0001091B7011A3008F07CC08091B30130E130
:1033F000839FC00111243091B401832B8E7F9927C4
:10340000959587958093AE018091B20181112EC070
:103410004AE0649FB001112462537109620F711D6B
:10342000072E000C880B990B0E94431F6B017C0137
:10343000612F70E080E090E00E94411F20E030E0CA
:1034400040E251E40E94991E9B01AC01C701B60104
:103450000E94281E6093AA017093AB018093AC0177
:103460009093AD0151E05093AF013BC08E3051F4C9
:103470008AE0689F200D11242093A90182E08093A7
:10348000AF012FC08B3069F59AE0699FB00111241C
:1034900062537109620F711D072E000C880B990B86
:1034A0000E94431F6B017C01612F70E080E090E07F
:1034B0000E94411F20E030E040E251E40E94991E4A
:1034C0009B01AC01C701B6010E94281E6093AA01AE
:1034D0007093AB018093AC019093AD01A1E0A093F8
:1034E000AF019091AF01992309F466C1E091B10158
:1034F0002091AE0130E081E0E81760F0F8E2F89F3B
:10350000D0011124AC5FBC4F4C91421301C0382F45
:103510008F5FF2CF3093A8018093B001311122C0A8
:10352000E23000F5EF5FE093B101E093A80138E2EB
:103530003E9FF0011124EC5FFC4F208341E046A345
:1035400047A3118212821382148215821682178277
:1035500010861186128613861486118A128A138A9F
:10356000158A148A913021F0923009F4B6C024C132
:103570008090920190909301A0909401B090950159
:103580008091D1019091D201A091D301B091D40149
:10359000880E991EAA1EBB1E8091960190919701DC
:1035A000092E000CAA0BBB0B880E991EAA1EBB1E6F
:1035B000C090AA01D090AB01E090AC01F090AD01B9
:1035C0002090A801312C58E2529D8001539D100D8E
:1035D00011240C5F1C4FD8011196CD92DD92ED9213
:1035E000FC92149796968C919697811163C01596CC
:1035F0002D913D914D915C911897C701B6010E94A4
:10360000941EF80187FF09C0C582D682E782F08642
:10361000868A978AA08EB18E16C021853285438511
:103620005485C701B6010E94F31F181664F4D8012F
:103630001996CD92DD92ED92FC921C97F801828E44
:10364000938EA48EB58EF8E2F29D8001F39D100D4D
:1036500011240C5F1C4FD80115962D913D914D9171
:103660005C911897C701B6010E94941E811104C095
:1036700021E0F801248B03C0D80154961C92B8E2D3
:10368000B29D8001B39D100D11240C5F1C4FF801F9
:103690002185328543855485C701B6010E94941E59
:1036A00081118AC0D80154968C9154978E5F54969C
:1036B0008C9382C0F801C582D682E782F086C186EB
:1036C000D286E386F486868A978AA08EB18E828E11
:1036D000938EA48EB58E16A26FC0009192011091A8
:1036E000930120919401309195018091D1019091A5
:1036F000D201A091D301B091D401080F191F2A1F44
:103700003B1F8091960190919701092E000CAA0B06
:10371000BB0B080F191F2A1F3B1F4091A901809165
:10372000A80190E0443609F443E6B8E2B89FF001FE
:10373000B99FF00D1124EC5FFC4F418B57A1511143
:1037400030C05289451730F4428B068F178F20A363
:1037500031A308C05389541728F4438B02A313A341
:1037600024A335A328E2289FF001299FF00D1124FE
:10377000EC5FFC4F2289421303C031E0358B01C05E
:10378000158A58E2589F9001599F300D1124F90174
:10379000EC5FFC4F838948130FC085898E5F858B52
:1037A0000BC0428B438B068F178F20A331A302A33C
:1037B00013A324A335A317A2109291018091B10104
:1037C000880F8F5F8093C90180E090E0892B11F40E
:1037D0000C9408130E9400000C9404131092E6024B
:1037E0001093E70283E68093C7011093C101A1C83B
:1037F00080919A0390919B03A0919C03B0919D03AB
:10380000C296A11DB11D80939A0390939B03A09330
:103810009C03B0939D036AE070E080E090E00E941A
:10382000A3036093A2036AE070E080E090E00E944E
:10383000A3036093A3036AE070E080E090E00E943D
:10384000A3036093A4036AE070E080E090E00E942C
:10385000A3036093A5036AE070E080E090E00E941B
:10386000A3036093A6036AE070E080E090E00E940A
:10387000A3036093A7036AE070E080E090E00E94F9
:10388000A3036093A8036AE070E080E090E00E94E8
:10389000A3036093A9036AE070E080E090E00E94D7
:1038A000A3036093AA036AE070E080E090E00E94C6
:1038B000A3036093AB036AE070E080E090E00E94B5
:1038C000A3036093AC036AE070E080E090E00E94A4
:1038D000A3036093AD0380917703823009F083C91D
:1038E0008CE089C980919303882311F0815083C9AA
:1038F0001092870382C91092700361E08091860361
:103900000E94F0038091790380938C0370928D0361
:103910000E94F50460939603709397038093980335
:1039200090939903109376038091BD018093C80111
:103930001092C701EBCC1092C7011092C1011092F6
:103940008803109289034FCB63E080E00E947509E1
:1039500061E0F0CB2F923F924F925F926F927F92F5
:103960008F929F92AF92BF92CF92DF92EF92FF928F
:103970000F931F93CF93DF9300D000D0CDB7DEB766
:103980001092C4021092C3021092C2021092C1029D
:103990000E947906E5ECF2E01382128288EE93E051
:1039A000A0E0B0E084839583A683B78385E691E0A9
:1039B0009183808310925C0381E08093650396E09D
:1039C00090937A039BE7292E93E0392E95E0F1013D
:1039D00090832CE733E097E0F90190834DE753E0C3
:1039E00093E0FA01908394E0EEE7F3E0908392E0B5
:1039F000EFE7F3E0908360E8C62E63E0D62E9FE009
:103A0000F601908371E8E72E73E0F72E9EE0F70150
:103A1000908302E813E090E1F8019083E3E8F3E09B
:103A20001082E4E86E2EE3E07E2EF3018083F5E859
:103A3000AF2EF3E0BF2E8BE0F5018083A6E88A2E3F
:103A4000A3E09A2E81E1F401808310926D0310921D
:103A50006E031092880310928903B5E74B2EB3E0F2
:103A60005B2EF20110821092700310926F0361E0DE
:103A700086E029833A834B835C830E94200461E0C3
:103A8000F10180810E94200461E029813A81F901DD
:103A900080810E94200461E04B815C81FA01808179
:103AA0000E94200461E0EEE7F3E080810E942004A0
:103AB00061E0EFE7F3E080810E94200461E0F6011D
:103AC00080810E94200461E0F70180810E9420042F
:103AD00061E0F80180810E94200461E0E3E8F3E006
:103AE00080810E94200461E0F30180810E94200413
:103AF00061E0F50180810E94200461E0F401808191
:103B00000E94200460E0F40180810E94F003F20131
:103B1000608170E0F50180810E945C0461E0F60143
:103B200080810E94F00361E0F70180810E94F00330
:103B300061E0F80180810E94F00361E0E3E8F3E0D6
:103B400080810E94F00361E0F30180810E94F00314
:103B5000E3EFF2E08AE0818314E112831382108A9A
:103B600062E00E942004E2EEF2E08CE081831283A6
:103B70001382108A62E00E942004E1EDF2E08DE001
:103B8000818312831382108A62E00F900F900F904E
:103B90000F90DF91CF911F910F91FF90EF90DF90E9
:103BA000CF90BF90AF909F908F907F906F905F90DD
:103BB0004F903F902F900C942004DB018F939F93A4
:103BC0000E94FB20BF91AF91A29F800D911DA39FEA
:103BD000900DB29F900D11240895991B79E004C0B7
:103BE000991F961708F0961B881F7A95C9F780953C
:103BF000089597FB072E16F4009407D077FD09D09F
:103C00000E94131E07FC05D03EF4909581959F4FAE
:103C10000895709561957F4F0895EE0FFF1F0590F1
:103C2000F491E02D0994AA1BBB1B51E107C0AA1F08
:103C3000BB1FA617B70710F0A61BB70B881F991F4D
:103C40005A95A9F780959095BC01CD0108955058DB
:103C5000BB27AA270E943F1E0C94B91F0E94AB1FCE
:103C600038F00E94B21F20F039F49F3F19F426F477
:103C70000C94A81F0EF4E095E7FB0C94A21FE92F0B
:103C80000E94CA1F58F3BA17620773078407950783
:103C900020F079F4A6F50C94EC1F0EF4E0950B2EB1
:103CA000BA2FA02D0B01B90190010C01CA01A0018E
:103CB0001124FF27591B99F0593F50F4503E68F1E9
:103CC0001A16F040A22F232F342F4427585FF3CF2A
:103CD000469537952795A795F0405395C9F77EF4FB
:103CE0001F16BA0B620B730B840BBAF09150A1F044
:103CF000FF0FBB1F661F771F881FC2F70EC0BA0FCA
:103D0000621F731F841F48F4879577956795B79551
:103D1000F7959E3F08F0B0CF9395880F08F099274C
:103D2000EE0F9795879508950E947E1F08F481E015
:103D300008950E94AD1E0C94B91F0E94B21F58F046
:103D40000E94AB1F40F029F45F3F29F00C94A21FA2
:103D500051110C94ED1F0C94A81F0E94CA1F68F308
:103D60009923B1F3552391F3951B550BBB27AA2734
:103D700062177307840738F09F5F5F4F220F331F6E
:103D8000441FAA1FA9F335D00E2E3AF0E0E832D036
:103D900091505040E695001CCAF72BD0FE2F29D039
:103DA000660F771F881FBB1F261737074807AB070B
:103DB000B0E809F0BB0B802DBF01FF2793585F4F80
:103DC0003AF09E3F510578F00C94A21F0C94ED1F21
:103DD0005F3FE4F3983ED4F3869577956795B79562
:103DE000F7959F5FC9F7880F911D9695879597F96D
:103DF0000895E1E0660F771F881FBB1F62177307E6
:103E00008407BA0720F0621B730B840BBA0BEE1FFA
:103E100088F7E09508950E94121F6894B1110C94E0
:103E2000ED1F08950E94D21F88F09F5798F0B92F78
:103E30009927B751B0F0E1F0660F771F881F991FDF
:103E40001AF0BA95C9F714C0B13091F00E94EC1F76
:103E5000B1E008950C94EC1F672F782F8827B85F86
:103E600039F0B93FCCF3869577956795B395D9F737
:103E70003EF490958095709561957F4F8F4F9F4F41
:103E80000895E89409C097FB3EF49095809570954D
:103E900061957F4F8F4F9F4F9923A9F0F92F96E996
:103EA000BB279395F695879577956795B795F1110B
:103EB000F8CFFAF4BB0F11F460FF1BC06F5F7F4FA8
:103EC0008F4F9F4F16C0882311F096E911C07723BA
:103ED00021F09EE8872F762F05C0662371F096E8C3
:103EE000862F70E060E02AF09A95660F771F881F92
:103EF000DAF7880F9695879597F90895990F000836
:103F0000550FAA0BE0E8FEEF16161706E807F907AB
:103F1000C0F012161306E407F50798F0621B730B46
:103F2000840B950B39F40A2661F0232B242B252BC7
:103F300021F408950A2609F4A140A6958FEF811D6A
:103F4000811D089597F99F6780E870E060E008950B
:103F50009FEF80EC089500240A94161617061806A1
:103F60000906089500240A9412161306140605067D
:103F70000895092E0394000C11F4882352F0BB0F0E
:103F800040F4BF2B11F460FF04C06F5F7F4F8F4F71
:103F90009F4F089557FD9058440F551F59F05F3FAC
:103FA00071F04795880F97FB991F61F09F3F79F05B
:103FB00087950895121613061406551FF2CF4695DD
:103FC000F1DF08C0161617061806991FF1CF86955F
:103FD0007105610508940895E894BB276627772743
:103FE000CB0197F908950E947E1F08F48FEF089582
:103FF0000E940B200C94B91F0E94AB1F38F00E9446
:10400000B21F20F0952311F00C94A21F0C94A81F4E
:1040100011240C94ED1F0E94CA1F70F3959FC1F3E9
:10402000950F50E0551F629FF001729FBB27F00D66
:10403000B11D639FAA27F00DB11DAA1F649F6627BB
:10404000B00DA11D661F829F2227B00DA11D621F0A
:10405000739FB00DA11D621F839FA00D611D221FC4
:10406000749F3327A00D611D231F849F600D211DA8
:10407000822F762F6A2F11249F5750409AF0F1F02B
:1040800088234AF0EE0FFF1FBB1F661F771F881F94
:1040900091505040A9F79E3F510580F00C94A21F0B
:1040A0000C94ED1F5F3FE4F3983ED4F3869577952B
:1040B0006795B795F795E7959F5FC1F7FE2B880F3A
:1040C000911D9695879597F9089581E090E0F89471
:1040D0000C943F218F929F92AF92BF92CF92DF922A
:1040E000EF92FF92CF93DF93EC01688179818A810F
:1040F0009B81611571058105910521F464E279EDDB
:104100008BE597E02DE133EF41E050E00E94DC20A9
:1041100049015A019B01AC01A7EAB1E40E94FB20CE
:104120006B017C01ACEEB4EFA50194010E94092162
:10413000DC01CB018C0D9D1DAE1DBF1DB7FF03C063
:104140000197A109B04888839983AA83BB83BC01E6
:10415000CD019F77DF91CF91FF90EF90DF90CF90CF
:10416000BF90AF909F908F9008950E946A2008950D
:1041700081E091E00E946A200895609301017093AC
:10418000020180930301909304010895F999FECFF1
:1041900092BD81BDF89A992780B50895262FF99987
:1041A000FECF1FBA92BD81BD20BD0FB6F894FA9A1A
:1041B000F99A0FBE01960895052E97FB1EF4009400
:1041C0000E94F32057FD07D00E940E2107FC03D068
:1041D0004EF40C94F32050954095309521953F4F27
:1041E0004F4F5F4F089590958095709561957F4FE3
:1041F0008F4F9F4F08950E943021A59F900DB49F2F
:10420000900DA49F800D911D11240895B7FF0C946B
:10421000FB200E94FB20821B930B0895A1E21A2E23
:10422000AA1BBB1BFD010DC0AA1FBB1FEE1FFF1F5A
:10423000A217B307E407F50720F0A21BB30BE40BAA
:10424000F50B661F771F881F991F1A9469F76095F1
:104250007095809590959B01AC01BD01CF010895AB
:10426000A29FB001B39FC001A39F700D811D1124B7
:10427000911DB29F700D811D1124911D0895F89418
:02428000FFCF6E
:1042820001010000002D031D0A192E031B0A1E2F17
:10429200031A0A1D3003190A1C31031F0A1B3203B9
:1042A2001D0A1933031C0A1F34031B0A1E35031A85
:1042B2000A1D36031A0A1D37031F0A1B38031D0A7B
:1042C2001939031C0A1F3A031B0A1E3B031A0A1D53
:1042D2003C031A0A1D1F1C1F1E1F1E1F1F1E1F1E0E
:1042E2001F00000000A60176016E015A014B014A2F
:0242F2000100C9
:107800000C94343C0C94513C0C94513C0C94513CE1
:107810000C94513C0C94513C0C94513C0C94513CB4
:107820000C94513C0C94513C0C94513C0C94513CA4
:107830000C94513C0C94513C0C94513C0C94513C94
:107840000C94513C0C94513C0C94513C0C94513C84
:107850000C94513C0C94513C0C94513C0C94513C74
:107860000C94513C0C94513C11241FBECFEFD8E036
:10787000DEBFCDBF11E0A0E0B1E0ECE9FFE702C060
:1078800005900D92A230B107D9F712E0A2E0B1E065
:1078900001C01D92AD30B107E1F70E942D3D0C945F
:1078A000CC3F0C94003C982F959595959595959582
:1078B000905D8F708A307CF0282F295A8091C0000B
:1078C00085FFFCCF9093C6008091C00085FFFCCF60
:1078D0002093C6000895282F205DF0CF982F809127
:1078E000C00085FFFCCF9093C6000895EF92FF92F1
:1078F0000F931F93EE24FF2487018091C00087FD22
:1079000017C00894E11CF11C011D111D81E4E8164B
:1079100082E4F8068FE0080780E0180770F3E09132
:107920000401F091050109958091C00087FFE9CF1E
:107930008091C6001F910F91FF90EF9008950E94D3
:10794000763C982F8091C00085FFFCCF9093C600B5
:1079500091362CF490330CF09053892F089597555D
:10796000892F08951F930E949F3C182F0E949F3CCF
:107970001295107F810F1F9108951F93182F882350
:1079800021F00E94763C1150E1F71F9108951F935A
:10799000182F0E94763C803249F0809103018F5F5E
:1079A000809303018530C1F01F9108958091C0003C
:1079B00085FFFCCF84E18093C6008091C00085FFE5
:1079C000FCCF1093C6008091C00085FFFCCF80E102
:1079D0008093C6001F910895E0910401F091050184
:1079E00009951F9108950E94763C803241F0809164
:1079F00003018F5F80930301853081F008958091AA
:107A0000C00085FFFCCF84E18093C6008091C00058
:107A100085FFFCCF80E18093C6000895E0910401CA
:107A2000F09105010995089540E951E08823A1F0FE
:107A30002D9A28EE33E0FA013197F1F721503040CA
:107A4000D1F72D9828EE33E0FA013197F1F7215064
:107A50003040D1F7815061F708953F924F925F9285
:107A60006F927F928F929F92AF92BF92CF92DF924E
:107A7000EF92FF920F931F93CF93DF93000080E16B
:107A80008093C4001092C50088E18093C10086E015
:107A90008093C2005098589A259A81E00E94143D24
:107AA00024E1F22E9EE1E92E85E9D82E0FE0C02ECA
:107AB00010E1B12EAA24A394B1E49B2EA6E58A2E50
:107AC000F2E57F2EE0E26E2E79E4572E63E5462E36
:107AD00050E5352E0E94763C8033B1F18133B9F107
:107AE000803409F46FC0813409F476C0823409F41B
:107AF00085C0853409F488C0803531F1823521F1A3
:107B0000813511F1853509F485C0863509F48DC0BC
:107B1000843609F496C0843709F403C1853709F423
:107B200072C1863709F466C0809103018F5F80932C
:107B30000301853079F6E0910401F0910501099582
:107B40000E94763C803351F60E94F33CC3CF0E94E2
:107B5000763C803249F78091C00085FFFCCFF092DF
:107B6000C6008091C00085FFFCCF9092C600809136
:107B7000C00085FFFCCF8092C6008091C00085FFC9
:107B8000FCCF7092C6008091C00085FFFCCF609250
:107B9000C6008091C00085FFFCCF5092C600809146
:107BA000C00085FFFCCF4092C6008091C00085FFD9
:107BB000FCCF3092C6008091C00085FFFCCFB09210
:107BC000C60088CF0E94763C863808F4BDCF0E945C
:107BD000763C0E94F33C7ECF0E94763C803809F4CC
:107BE0009CC0813809F40BC1823809F43CC1883942
:107BF00009F48FC080E00E94C73C6CCF84E10E94F2
:107C0000BD3C0E94F33C66CF85E00E94BD3C0E94D3
:107C1000F33C60CF0E94763C809306010E94763C44
:107C2000809307010E94F33C55CF0E94763C80333D
:107C300009F41DC183E00E94BD3C80E00E94C73C66
:107C400049CF0E94763C809309020E94763C809343
:107C5000080280910C028E7F80930C020E94763C79
:107C6000853409F415C18091080290910902892B8D
:107C700089F000E010E00E94763CF801E85FFE4FDA
:107C800080830F5F1F4F80910802909109020817AF
:107C9000190788F30E94763C803209F045CF809125
:107CA0000C0280FF01C16091060170910701660F0F
:107CB000771F7093070160930601A0910802B091AD
:107CC00009021097C9F0E8E0F1E09B01AD014E0F09
:107CD0005F1FF999FECF32BD21BD819180BDFA9A17
:107CE000F99A2F5F3F4FE417F50799F76A0F7B1F4B
:107CF00070930701609306018091C00085FFFCCF5F
:107D0000F092C6008091C00085FFFCCFB092C60003
:107D1000E1CE83E00E94C73CDDCE82E00E94C73CFA
:107D2000D9CE0E94763C809309020E94763C8093D3
:107D300008028091060190910701880F991F909386
:107D40000701809306010E94763C853409F4A6C0A1
:107D500080910C028E7F80930C020E94763C8032D0
:107D600009F0B8CE8091C00085FFFCCFF092C6002C
:107D7000609108027091090261157105B9F140E046
:107D800050E080910C02A82FA170B82FB27011C0E2
:107D9000BB2309F45CC0E0910601F0910701319624
:107DA000F0930701E09306014F5F5F4F46175707B7
:107DB000E8F4AA2369F3F999FECF209106013091E6
:107DC000070132BD21BDF89A90B58091C00085FFB2
:107DD000FCCF9093C6002F5F3F4F30930701209355
:107DE00006014F5F5F4F4617570718F38091C00099
:107DF00085FDE5CE8091C00085FFF8CFE0CE81E023
:107E00000E94C73C67CE0E94763C803209F08CCE3F
:107E10008091C00085FFFCCFF092C6008091C00029
:107E200085FFFCCFE092C6008091C00085FFFCCFAB
:107E3000D092C6008091C00085FFFCCFC092C600E2
:107E40008091C00085FFFCCFB092C60043CEE09188
:107E50000601F091070194918091C00085FFFCCF4D
:107E60009093C6009CCF80E10E94C73C33CE0E9415
:107E7000763C0E94763C182F0E94763C112309F430
:107E800083C0113009F484C08FE00E94C73C22CE29
:107E900080910C02816080930C02E5CE80910C02EF
:107EA000816080930C0259CF809107018823880F4D
:107EB000880B8A2180930B02809106019091070123
:107EC000880F991F90930701809306018091080203
:107ED00080FF09C080910802909109020196909359
:107EE000090280930802F894F999FECF1127E091D6
:107EF0000601F0910701C8E0D1E08091080290915D
:107F00000902103091F40091570001700130D9F34B
:107F100003E000935700E89500915700017001308D
:107F2000D9F301E100935700E89509901990009169
:107F3000570001700130D9F301E000935700E89534
:107F40001395103498F011270091570001700130FB
:107F5000D9F305E000935700E895009157000170B0
:107F60000130D9F301E100935700E895329602976A
:107F700009F0C7CF103011F00296E5CF112480919F
:107F8000C00085FFB9CEBCCE8EE10E94C73CA2CD19
:0C7F900085E90E94C73C9ECDF894FFCF0D
:027F9C00800063
:040000030000780081
:00000001FF
